{
  "contractName": "PharmaSupplyChain",
  "abi": [
    {
      "anonymous": false,
      "inputs": [
        {
          "indexed": false,
          "internalType": "uint256",
          "name": "batchNumber",
          "type": "uint256"
        },
        {
          "indexed": false,
          "internalType": "string",
          "name": "name",
          "type": "string"
        },
        {
          "indexed": true,
          "internalType": "address",
          "name": "manufacturer",
          "type": "address"
        }
      ],
      "name": "DrugRegistered",
      "type": "event"
    },
    {
      "anonymous": false,
      "inputs": [
        {
          "indexed": false,
          "internalType": "uint256",
          "name": "batchNumber",
          "type": "uint256"
        },
        {
          "indexed": false,
          "internalType": "bool",
          "name": "verified",
          "type": "bool"
        }
      ],
      "name": "DrugVerified",
      "type": "event"
    },
    {
      "anonymous": false,
      "inputs": [
        {
          "indexed": false,
          "internalType": "uint256",
          "name": "batchNumber",
          "type": "uint256"
        },
        {
          "indexed": false,
          "internalType": "bool",
          "name": "fraudDetected",
          "type": "bool"
        }
      ],
      "name": "FraudDetected",
      "type": "event"
    },
    {
      "inputs": [
        {
          "internalType": "uint256",
          "name": "",
          "type": "uint256"
        }
      ],
      "name": "drugs",
      "outputs": [
        {
          "internalType": "string",
          "name": "name",
          "type": "string"
        },
        {
          "internalType": "uint256",
          "name": "batchNumber",
          "type": "uint256"
        },
        {
          "internalType": "address",
          "name": "manufacturer",
          "type": "address"
        },
        {
          "internalType": "bool",
          "name": "verified",
          "type": "bool"
        },
        {
          "internalType": "bool",
          "name": "fraudDetected",
          "type": "bool"
        },
        {
          "internalType": "uint256",
          "name": "registrationTimestamp",
          "type": "uint256"
        }
      ],
      "stateMutability": "view",
      "type": "function",
      "constant": true
    },
    {
      "inputs": [
        {
          "internalType": "address",
          "name": "",
          "type": "address"
        }
      ],
      "name": "manufacturerRegistrationCount",
      "outputs": [
        {
          "internalType": "uint256",
          "name": "",
          "type": "uint256"
        }
      ],
      "stateMutability": "view",
      "type": "function",
      "constant": true
    },
    {
      "inputs": [
        {
          "internalType": "uint256",
          "name": "_batchNumber",
          "type": "uint256"
        },
        {
          "internalType": "string",
          "name": "_name",
          "type": "string"
        }
      ],
      "name": "registerDrug",
      "outputs": [],
      "stateMutability": "nonpayable",
      "type": "function"
    },
    {
      "inputs": [
        {
          "internalType": "uint256",
          "name": "_batchNumber",
          "type": "uint256"
        }
      ],
      "name": "verifyDrug",
      "outputs": [],
      "stateMutability": "nonpayable",
      "type": "function"
    },
    {
      "inputs": [
        {
          "internalType": "uint256",
          "name": "_batchNumber",
          "type": "uint256"
        }
      ],
      "name": "markAsFraudulent",
      "outputs": [],
      "stateMutability": "nonpayable",
      "type": "function"
    },
    {
      "inputs": [
        {
          "internalType": "uint256",
          "name": "_batchNumber",
          "type": "uint256"
        }
      ],
      "name": "getDrug",
      "outputs": [
        {
          "internalType": "string",
          "name": "name",
          "type": "string"
        },
        {
          "internalType": "address",
          "name": "manufacturer",
          "type": "address"
        },
        {
          "internalType": "bool",
          "name": "verified",
          "type": "bool"
        },
        {
          "internalType": "bool",
          "name": "fraudDetected",
          "type": "bool"
        },
        {
          "internalType": "uint256",
          "name": "registrationTimestamp",
          "type": "uint256"
        }
      ],
      "stateMutability": "view",
      "type": "function",
      "constant": true
    },
    {
      "inputs": [
        {
          "internalType": "address",
          "name": "_manufacturer",
          "type": "address"
        }
      ],
      "name": "getManufacturerRegistrationCount",
      "outputs": [
        {
          "internalType": "uint256",
          "name": "",
          "type": "uint256"
        }
      ],
      "stateMutability": "view",
      "type": "function",
      "constant": true
    }
  ],
  "bytecode": "0x608060405234801561001057600080fd5b5061112c806100206000396000f3fe608060405234801561001057600080fd5b506004361061007d5760003560e01c8063678c65d01161005b578063678c65d0146100ea578063b058aff714610106578063b8840d3d14610136578063fca5e61e1461016a5761007d565b80631e35250c146100825780633f6e1b28146100b2578063412b46e4146100ce575b600080fd5b61009c60048036038101906100979190610b46565b61019f565b6040516100a99190610e34565b60405180910390f35b6100cc60048036038101906100c79190610b98565b6101b7565b005b6100e860048036038101906100e39190610b6f565b61041a565b005b61010460048036038101906100ff9190610b6f565b61058d565b005b610120600480360381019061011b9190610b46565b61069d565b60405161012d9190610e34565b60405180910390f35b610150600480360381019061014b9190610b6f565b6106e6565b604051610161959493929190610d12565b60405180910390f35b610184600480360381019061017f9190610b6f565b610913565b60405161019696959493929190610d6c565b60405180910390f35b60016020528060005260406000206000915090505481565b600073ffffffffffffffffffffffffffffffffffffffff1660008084815260200190815260200160002060020160009054906101000a900473ffffffffffffffffffffffffffffffffffffffff1673ffffffffffffffffffffffffffffffffffffffff161461025b576040517f08c379a000000000000000000000000000000000000000000000000000000000815260040161025290610dd4565b60405180910390fd5b6040518060c001604052808281526020018381526020013373ffffffffffffffffffffffffffffffffffffffff1681526020016000151581526020016000151581526020014281525060008084815260200190815260200160002060008201518160000190805190602001906102d2929190610a11565b506020820151816001015560408201518160020160006101000a81548173ffffffffffffffffffffffffffffffffffffffff021916908373ffffffffffffffffffffffffffffffffffffffff16021790555060608201518160020160146101000a81548160ff02191690831515021790555060808201518160020160156101000a81548160ff02191690831515021790555060a08201518160030155905050600160003373ffffffffffffffffffffffffffffffffffffffff1673ffffffffffffffffffffffffffffffffffffffff16815260200190815260200160002060008154809291906103c190610fe1565b91905055503373ffffffffffffffffffffffffffffffffffffffff167fc74f6138b459272b53570304923128b340d63779777f301ca93880c6cf68f082838360405161040e929190610e78565b60405180910390a25050565b600073ffffffffffffffffffffffffffffffffffffffff1660008083815260200190815260200160002060020160009054906101000a900473ffffffffffffffffffffffffffffffffffffffff1673ffffffffffffffffffffffffffffffffffffffff1614156104bf576040517f08c379a00000000000000000000000000000000000000000000000000000000081526004016104b690610df4565b60405180910390fd5b60008082815260200190815260200160002060020160159054906101000a900460ff1615610522576040517f08c379a000000000000000000000000000000000000000000000000000000000815260040161051990610e14565b60405180910390fd5b600160008083815260200190815260200160002060020160146101000a81548160ff0219169083151502179055507f225438de314514e560b49cda6174c28e4fab7a84ddcd1d2d614f25fc839edeb0816001604051610582929190610e4f565b60405180910390a150565b600073ffffffffffffffffffffffffffffffffffffffff1660008083815260200190815260200160002060020160009054906101000a900473ffffffffffffffffffffffffffffffffffffffff1673ffffffffffffffffffffffffffffffffffffffff161415610632576040517f08c379a000000000000000000000000000000000000000000000000000000000815260040161062990610df4565b60405180910390fd5b600160008083815260200190815260200160002060020160156101000a81548160ff0219169083151502179055507ff7b319d30faea268e2627510d54a94930ade6581062231951e9d5cba4f577df2816001604051610692929190610e4f565b60405180910390a150565b6000600160008373ffffffffffffffffffffffffffffffffffffffff1673ffffffffffffffffffffffffffffffffffffffff168152602001908152602001600020549050919050565b6060600080600080600073ffffffffffffffffffffffffffffffffffffffff1660008088815260200190815260200160002060020160009054906101000a900473ffffffffffffffffffffffffffffffffffffffff1673ffffffffffffffffffffffffffffffffffffffff161415610793576040517f08c379a000000000000000000000000000000000000000000000000000000000815260040161078a90610df4565b60405180910390fd5b60008060008881526020019081526020016000206040518060c00160405290816000820180546107c290610faf565b80601f01602080910402602001604051908101604052809291908181526020018280546107ee90610faf565b801561083b5780601f106108105761010080835404028352916020019161083b565b820191906000526020600020905b81548152906001019060200180831161081e57829003601f168201915b50505050508152602001600182015481526020016002820160009054906101000a900473ffffffffffffffffffffffffffffffffffffffff1673ffffffffffffffffffffffffffffffffffffffff1673ffffffffffffffffffffffffffffffffffffffff1681526020016002820160149054906101000a900460ff161515151581526020016002820160159054906101000a900460ff16151515158152602001600382015481525050905080600001518160400151826060015183608001518460a00151955095509550955095505091939590929450565b600060205280600052604060002060009150905080600001805461093690610faf565b80601f016020809104026020016040519081016040528092919081815260200182805461096290610faf565b80156109af5780601f10610984576101008083540402835291602001916109af565b820191906000526020600020905b81548152906001019060200180831161099257829003601f168201915b5050505050908060010154908060020160009054906101000a900473ffffffffffffffffffffffffffffffffffffffff16908060020160149054906101000a900460ff16908060020160159054906101000a900460ff16908060030154905086565b828054610a1d90610faf565b90600052602060002090601f016020900481019282610a3f5760008555610a86565b82601f10610a5857805160ff1916838001178555610a86565b82800160010185558215610a86579182015b82811115610a85578251825591602001919060010190610a6a565b5b509050610a939190610a97565b5090565b5b80821115610ab0576000816000905550600101610a98565b5090565b6000610ac7610ac284610ed9565b610ea8565b905082815260208101848484011115610adf57600080fd5b610aea848285610f6d565b509392505050565b600081359050610b01816110c8565b92915050565b600082601f830112610b1857600080fd5b8135610b28848260208601610ab4565b91505092915050565b600081359050610b40816110df565b92915050565b600060208284031215610b5857600080fd5b6000610b6684828501610af2565b91505092915050565b600060208284031215610b8157600080fd5b6000610b8f84828501610b31565b91505092915050565b60008060408385031215610bab57600080fd5b6000610bb985828601610b31565b925050602083013567ffffffffffffffff811115610bd657600080fd5b610be285828601610b07565b9150509250929050565b610bf581610f25565b82525050565b610c0481610f37565b82525050565b6000610c1582610f09565b610c1f8185610f14565b9350610c2f818560208601610f7c565b610c38816110b7565b840191505092915050565b6000610c50601f83610f14565b91507f4261746368206e756d62657220616c72656164792072656769737465726564006000830152602082019050919050565b6000610c90601383610f14565b91507f44727567206e6f742072656769737465726564000000000000000000000000006000830152602082019050919050565b6000610cd0601683610f14565b91507f4472756720666c616767656420666f72206672617564000000000000000000006000830152602082019050919050565b610d0c81610f63565b82525050565b600060a0820190508181036000830152610d2c8188610c0a565b9050610d3b6020830187610bec565b610d486040830186610bfb565b610d556060830185610bfb565b610d626080830184610d03565b9695505050505050565b600060c0820190508181036000830152610d868189610c0a565b9050610d956020830188610d03565b610da26040830187610bec565b610daf6060830186610bfb565b610dbc6080830185610bfb565b610dc960a0830184610d03565b979650505050505050565b60006020820190508181036000830152610ded81610c43565b9050919050565b60006020820190508181036000830152610e0d81610c83565b9050919050565b60006020820190508181036000830152610e2d81610cc3565b9050919050565b6000602082019050610e496000830184610d03565b92915050565b6000604082019050610e646000830185610d03565b610e716020830184610bfb565b9392505050565b6000604082019050610e8d6000830185610d03565b8181036020830152610e9f8184610c0a565b90509392505050565b6000604051905081810181811067ffffffffffffffff82111715610ecf57610ece611088565b5b8060405250919050565b600067ffffffffffffffff821115610ef457610ef3611088565b5b601f19601f8301169050602081019050919050565b600081519050919050565b600082825260208201905092915050565b6000610f3082610f43565b9050919050565b60008115159050919050565b600073ffffffffffffffffffffffffffffffffffffffff82169050919050565b6000819050919050565b82818337600083830152505050565b60005b83811015610f9a578082015181840152602081019050610f7f565b83811115610fa9576000848401525b50505050565b60006002820490506001821680610fc757607f821691505b60208210811415610fdb57610fda611059565b5b50919050565b6000610fec82610f63565b91507fffffffffffffffffffffffffffffffffffffffffffffffffffffffffffffffff82141561101f5761101e61102a565b5b600182019050919050565b7f4e487b7100000000000000000000000000000000000000000000000000000000600052601160045260246000fd5b7f4e487b7100000000000000000000000000000000000000000000000000000000600052602260045260246000fd5b7f4e487b7100000000000000000000000000000000000000000000000000000000600052604160045260246000fd5b6000601f19601f8301169050919050565b6110d181610f25565b81146110dc57600080fd5b50565b6110e881610f63565b81146110f357600080fd5b5056fea26469706673582212207474acb3e7c3161a66e5ef71c7cdd299fcadb97e4c7903896c042e919500de9264736f6c63430008000033",
  "immutableReferences": {},
  "source": "// SPDX-License-Identifier: MIT\npragma solidity ^0.8.0;\n\ncontract PharmaSupplyChain {\n    struct Drug {\n        string name;\n        uint256 batchNumber;\n        address manufacturer;\n        bool verified;\n        bool fraudDetected;\n        uint256 registrationTimestamp;\n    }\n\n    mapping(uint256 => Drug) public drugs;\n    mapping(address => uint256) public manufacturerRegistrationCount;\n\n    event DrugRegistered(uint256 batchNumber, string name, address indexed manufacturer);\n    event DrugVerified(uint256 batchNumber, bool verified);\n    event FraudDetected(uint256 batchNumber, bool fraudDetected);\n\n    // Function to register a new drug\n    function registerDrug(uint256 _batchNumber, string memory _name) public {\n        require(drugs[_batchNumber].manufacturer == address(0), \"Batch number already registered\");\n\n        drugs[_batchNumber] = Drug({\n            name: _name,\n            batchNumber: _batchNumber,\n            manufacturer: msg.sender,\n            verified: false,\n            fraudDetected: false,\n            registrationTimestamp: block.timestamp\n        });\n\n        manufacturerRegistrationCount[msg.sender]++;\n        emit DrugRegistered(_batchNumber, _name, msg.sender);\n    }\n\n    // Function to verify a drug\n    function verifyDrug(uint256 _batchNumber) public {\n        require(drugs[_batchNumber].manufacturer != address(0), \"Drug not registered\");\n        require(!drugs[_batchNumber].fraudDetected, \"Drug flagged for fraud\");\n\n        drugs[_batchNumber].verified = true;\n        emit DrugVerified(_batchNumber, true);\n    }\n\n    // Function to mark a drug as fraudulent\n    function markAsFraudulent(uint256 _batchNumber) public {\n        require(drugs[_batchNumber].manufacturer != address(0), \"Drug not registered\");\n        \n        drugs[_batchNumber].fraudDetected = true;\n        emit FraudDetected(_batchNumber, true);\n    }\n\n    // Function to retrieve drug details\n    function getDrug(uint256 _batchNumber) public view returns (\n        string memory name,\n        address manufacturer,\n        bool verified,\n        bool fraudDetected,\n        uint256 registrationTimestamp\n    ) {\n        require(drugs[_batchNumber].manufacturer != address(0), \"Drug not registered\");\n\n        Drug memory d = drugs[_batchNumber];\n        return (d.name, d.manufacturer, d.verified, d.fraudDetected, d.registrationTimestamp);\n    }\n\n    // Function to get manufacturer registration count\n    function getManufacturerRegistrationCount(address _manufacturer) public view returns (uint256) {\n        return manufacturerRegistrationCount[_manufacturer];\n    }\n}",
  "sourcePath": "C:\\Users\\unkno\\Desktop\\pharma_chain\\contracts\\PharmaSupplyChain.sol",
  "compiler": {
    "name": "solc",
    "version": "0.8.0+commit.c7dfd78e.Emscripten.clang"
  },
  "schemaVersion": "3.4.16",
  "updatedAt": "2025-03-19T16:52:11.124Z",
  "networkType": "ethereum",
  "devdoc": {
    "kind": "dev",
    "methods": {},
    "version": 1
  },
  "userdoc": {
    "kind": "user",
    "methods": {},
    "version": 1
  }
}