{
  "contractName": "PharmaSupplyChain",
  "abi": [
    {
      "anonymous": false,
      "inputs": [
        {
          "indexed": false,
          "internalType": "uint256",
          "name": "batchNumber",
          "type": "uint256"
        },
        {
          "indexed": false,
          "internalType": "string",
          "name": "name",
          "type": "string"
        },
        {
          "indexed": true,
          "internalType": "address",
          "name": "manufacturer",
          "type": "address"
        }
      ],
      "name": "DrugRegistered",
      "type": "event"
    },
    {
      "anonymous": false,
      "inputs": [
        {
          "indexed": false,
          "internalType": "uint256",
          "name": "batchNumber",
          "type": "uint256"
        },
        {
          "indexed": false,
          "internalType": "bool",
          "name": "verified",
          "type": "bool"
        }
      ],
      "name": "DrugVerified",
      "type": "event"
    },
    {
      "inputs": [
        {
          "internalType": "uint256",
          "name": "",
          "type": "uint256"
        }
      ],
      "name": "drugs",
      "outputs": [
        {
          "internalType": "string",
          "name": "name",
          "type": "string"
        },
        {
          "internalType": "uint256",
          "name": "batchNumber",
          "type": "uint256"
        },
        {
          "internalType": "address",
          "name": "manufacturer",
          "type": "address"
        },
        {
          "internalType": "bool",
          "name": "verified",
          "type": "bool"
        }
      ],
      "stateMutability": "view",
      "type": "function",
      "constant": true
    },
    {
      "inputs": [
        {
          "internalType": "uint256",
          "name": "_batchNumber",
          "type": "uint256"
        },
        {
          "internalType": "string",
          "name": "_name",
          "type": "string"
        }
      ],
      "name": "registerDrug",
      "outputs": [],
      "stateMutability": "nonpayable",
      "type": "function"
    },
    {
      "inputs": [
        {
          "internalType": "uint256",
          "name": "_batchNumber",
          "type": "uint256"
        }
      ],
      "name": "verifyDrug",
      "outputs": [],
      "stateMutability": "nonpayable",
      "type": "function"
    },
    {
      "inputs": [
        {
          "internalType": "uint256",
          "name": "_batchNumber",
          "type": "uint256"
        }
      ],
      "name": "getDrug",
      "outputs": [
        {
          "internalType": "string",
          "name": "",
          "type": "string"
        },
        {
          "internalType": "address",
          "name": "",
          "type": "address"
        },
        {
          "internalType": "bool",
          "name": "",
          "type": "bool"
        }
      ],
      "stateMutability": "view",
      "type": "function",
      "constant": true
    }
  ],
  "bytecode": "0x608060405234801561001057600080fd5b50610c48806100206000396000f3fe608060405234801561001057600080fd5b506004361061004c5760003560e01c80633f6e1b2814610051578063412b46e41461006d578063b8840d3d14610089578063fca5e61e146100bb575b600080fd5b61006b600480360381019061006691906107f6565b6100ee565b005b610087600480360381019061008291906107cd565b6102c3565b005b6100a3600480360381019061009e91906107cd565b6103d3565b6040516100b293929190610930565b60405180910390f35b6100d560048036038101906100d091906107cd565b6105c8565b6040516100e5949392919061096e565b60405180910390f35b600073ffffffffffffffffffffffffffffffffffffffff1660008084815260200190815260200160002060020160009054906101000a900473ffffffffffffffffffffffffffffffffffffffff1673ffffffffffffffffffffffffffffffffffffffff1614610192576040517f08c379a0000000000000000000000000000000000000000000000000000000008152600401610189906109ba565b60405180910390fd5b60405180608001604052808281526020018381526020013373ffffffffffffffffffffffffffffffffffffffff1681526020016000151581525060008084815260200190815260200160002060008201518160000190805190602001906101fa9291906106ad565b506020820151816001015560408201518160020160006101000a81548173ffffffffffffffffffffffffffffffffffffffff021916908373ffffffffffffffffffffffffffffffffffffffff16021790555060608201518160020160146101000a81548160ff0219169083151502179055509050503373ffffffffffffffffffffffffffffffffffffffff167fc74f6138b459272b53570304923128b340d63779777f301ca93880c6cf68f08283836040516102b7929190610a23565b60405180910390a25050565b600073ffffffffffffffffffffffffffffffffffffffff1660008083815260200190815260200160002060020160009054906101000a900473ffffffffffffffffffffffffffffffffffffffff1673ffffffffffffffffffffffffffffffffffffffff161415610368576040517f08c379a000000000000000000000000000000000000000000000000000000000815260040161035f906109da565b60405180910390fd5b600160008083815260200190815260200160002060020160146101000a81548160ff0219169083151502179055507f225438de314514e560b49cda6174c28e4fab7a84ddcd1d2d614f25fc839edeb08160016040516103c89291906109fa565b60405180910390a150565b6060600080600073ffffffffffffffffffffffffffffffffffffffff1660008086815260200190815260200160002060020160009054906101000a900473ffffffffffffffffffffffffffffffffffffffff1673ffffffffffffffffffffffffffffffffffffffff16141561047d576040517f08c379a0000000000000000000000000000000000000000000000000000000008152600401610474906109da565b60405180910390fd5b60008060008681526020019081526020016000206040518060800160405290816000820180546104ac90610b5a565b80601f01602080910402602001604051908101604052809291908181526020018280546104d890610b5a565b80156105255780601f106104fa57610100808354040283529160200191610525565b820191906000526020600020905b81548152906001019060200180831161050857829003601f168201915b50505050508152602001600182015481526020016002820160009054906101000a900473ffffffffffffffffffffffffffffffffffffffff1673ffffffffffffffffffffffffffffffffffffffff1673ffffffffffffffffffffffffffffffffffffffff1681526020016002820160149054906101000a900460ff1615151515815250509050806000015181604001518260600151935093509350509193909250565b60006020528060005260406000206000915090508060000180546105eb90610b5a565b80601f016020809104026020016040519081016040528092919081815260200182805461061790610b5a565b80156106645780601f1061063957610100808354040283529160200191610664565b820191906000526020600020905b81548152906001019060200180831161064757829003601f168201915b5050505050908060010154908060020160009054906101000a900473ffffffffffffffffffffffffffffffffffffffff16908060020160149054906101000a900460ff16905084565b8280546106b990610b5a565b90600052602060002090601f0160209004810192826106db5760008555610722565b82601f106106f457805160ff1916838001178555610722565b82800160010185558215610722579182015b82811115610721578251825591602001919060010190610706565b5b50905061072f9190610733565b5090565b5b8082111561074c576000816000905550600101610734565b5090565b600061076361075e84610a84565b610a53565b90508281526020810184848401111561077b57600080fd5b610786848285610b18565b509392505050565b600082601f83011261079f57600080fd5b81356107af848260208601610750565b91505092915050565b6000813590506107c781610bfb565b92915050565b6000602082840312156107df57600080fd5b60006107ed848285016107b8565b91505092915050565b6000806040838503121561080957600080fd5b6000610817858286016107b8565b925050602083013567ffffffffffffffff81111561083457600080fd5b6108408582860161078e565b9150509250929050565b61085381610ad0565b82525050565b61086281610ae2565b82525050565b600061087382610ab4565b61087d8185610abf565b935061088d818560208601610b27565b61089681610bea565b840191505092915050565b60006108ae601f83610abf565b91507f4261746368206e756d62657220616c72656164792072656769737465726564006000830152602082019050919050565b60006108ee601383610abf565b91507f44727567206e6f742072656769737465726564000000000000000000000000006000830152602082019050919050565b61092a81610b0e565b82525050565b6000606082019050818103600083015261094a8186610868565b9050610959602083018561084a565b6109666040830184610859565b949350505050565b600060808201905081810360008301526109888187610868565b90506109976020830186610921565b6109a4604083018561084a565b6109b16060830184610859565b95945050505050565b600060208201905081810360008301526109d3816108a1565b9050919050565b600060208201905081810360008301526109f3816108e1565b9050919050565b6000604082019050610a0f6000830185610921565b610a1c6020830184610859565b9392505050565b6000604082019050610a386000830185610921565b8181036020830152610a4a8184610868565b90509392505050565b6000604051905081810181811067ffffffffffffffff82111715610a7a57610a79610bbb565b5b8060405250919050565b600067ffffffffffffffff821115610a9f57610a9e610bbb565b5b601f19601f8301169050602081019050919050565b600081519050919050565b600082825260208201905092915050565b6000610adb82610aee565b9050919050565b60008115159050919050565b600073ffffffffffffffffffffffffffffffffffffffff82169050919050565b6000819050919050565b82818337600083830152505050565b60005b83811015610b45578082015181840152602081019050610b2a565b83811115610b54576000848401525b50505050565b60006002820490506001821680610b7257607f821691505b60208210811415610b8657610b85610b8c565b5b50919050565b7f4e487b7100000000000000000000000000000000000000000000000000000000600052602260045260246000fd5b7f4e487b7100000000000000000000000000000000000000000000000000000000600052604160045260246000fd5b6000601f19601f8301169050919050565b610c0481610b0e565b8114610c0f57600080fd5b5056fea2646970667358221220f83f3dd0ddcd813a3c9b29185d2636bd070c438d40230746ed7b758c0e6d1dc864736f6c63430008000033",
  "immutableReferences": {},
  "source": "// SPDX-License-Identifier: MIT\r\npragma solidity ^0.8.0;\r\n\r\ncontract PharmaSupplyChain {\r\n    struct Drug {\r\n        string name;\r\n        uint256 batchNumber;\r\n        address manufacturer;\r\n        bool verified;\r\n    }\r\n\r\n    mapping(uint256 => Drug) public drugs;\r\n\r\n    event DrugRegistered(uint256 batchNumber, string name, address indexed manufacturer);\r\n    event DrugVerified(uint256 batchNumber, bool verified);\r\n\r\n    // Function to register a new drug\r\n    function registerDrug(uint256 _batchNumber, string memory _name) public {\r\n        require(drugs[_batchNumber].manufacturer == address(0), \"Batch number already registered\");\r\n\r\n        drugs[_batchNumber] = Drug({\r\n            name: _name,\r\n            batchNumber: _batchNumber,\r\n            manufacturer: msg.sender,\r\n            verified: false\r\n        });\r\n\r\n        emit DrugRegistered(_batchNumber, _name, msg.sender);\r\n    }\r\n\r\n    // Function to verify a drug\r\n    function verifyDrug(uint256 _batchNumber) public {\r\n        require(drugs[_batchNumber].manufacturer != address(0), \"Drug not registered\");\r\n\r\n        drugs[_batchNumber].verified = true;\r\n\r\n        emit DrugVerified(_batchNumber, true);\r\n    }\r\n\r\n    // Function to retrieve drug details\r\n    function getDrug(uint256 _batchNumber) public view returns (string memory, address, bool) {\r\n        require(drugs[_batchNumber].manufacturer != address(0), \"Drug not registered\");\r\n\r\n        Drug memory d = drugs[_batchNumber];\r\n        return (d.name, d.manufacturer, d.verified);\r\n    }\r\n}",
  "sourcePath": "C:\\Users\\unkno\\Desktop\\pharma_chain\\contracts\\PharmaSupplyChain.sol",
  "compiler": {
    "name": "solc",
    "version": "0.8.0+commit.c7dfd78e.Emscripten.clang"
  },
  "schemaVersion": "3.4.16",
  "updatedAt": "2025-03-17T09:11:26.952Z",
  "networkType": "ethereum",
  "devdoc": {
    "kind": "dev",
    "methods": {},
    "version": 1
  },
  "userdoc": {
    "kind": "user",
    "methods": {},
    "version": 1
  }
}